:1000000000200020F9000000710600002906000011
:100010002906000029060000290600002906000024
:1000200029060000290600002906000071060000CC
:100030007106000029060000491B00004D1B00004E
:1000400071060000710600007106000071060000D4
:1000500071060000710600007106000071060000C4
:1000600071060000710600007106000071060000B4
:1000700071060000710600007106000071060000A4
:100080007106000071060000710600007106000094
:100090007106000071060000710600007106000084
:1000A0007106000071060000710600007106000074
:1000B0007106000071060000710600007106000064
:1000C000710600007106000071060000210C00009E
:1000D0007106000071060000710600007106000044
:1000E0007106000071060000710600007106000034
:1000F0007106000071060000544B4CF2205210B5FE
:100100001A804DF628121A8000BF00BF00F0B4FA22
:100110004F4B504A1A60504A5A60504A136813F4C1
:10012000807304D14E490B604FF4A85313604D4BBC
:100130001A78110703D51A7842F008021A704A4B50
:100140004A492A221A704A4A4A4B8B4204D252F830
:10015000040F43F8040BF8E7474B484900228B4251
:1001600002D243F8042BFAE74549464A002352F8E5
:10017000230041F8230001333E2BF8D1424B434A80
:10018000802103F8011B9342FBD1414B3C4A1A608A
:10019000404B8A221A70A3F5805324225A70A02261
:1001A0001A709A799207FCD59A79D406FCD43A4A07
:1001B000937903F00C03082B374BF9D103221A7102
:1001C00040225A719A799006FCD5334A9179324B84
:1001D0004906FBD5314A3249116002215160202283
:1001E0001A709A7902F00C020C2AFAD12D4B2E4A81
:1001F0001A602E4B2E4A1A6000225A60072243F8DA
:10020000042C2C4AC3F80C2D62B600F01DFB144BD5
:100210001B68DA0705D5284800F0AAFA274B284AB8
:100220001A60284B1B785B0609D5244C244B2268A6
:100230009A4204D1204800F09BFA0023236002F088
:10024000B7FB00F01FFA01F0B3FDFEE70E200540FA
:1002500038800440823F04000100002B10D003408E
:1002600014D0034002D0074000E0074054EEFF1FC7
:100270000435000058E5FF1F58EEFF1F08F0FF1F70
:1002800000E1FF1F0000000000E400E02EE400E0B9
:1002900008ED00E000500640004006404480044065
:1002A0000000030104800440C010050014E000E0D9
:1002B000FF7601000000202022D0A2601CE0034055
:1002C000A5C3945A00F00740FFFFFFFFFFFFFFFFA9
:1002D000FFFFFFFFFFFFFFFFFFFFFFFFFFFFFFFF2E
:1002E000FFFFFFFFFFFFFFFFFFFFFFFFFFFFFFFF1E
:1002F000FFFFFFFFFFFFFFFFFFFFFFFFFFFFFFFF0E
:10030000FFFFFFFFFFFFFFFFFFFFFFFFFFFFFFFFFD
:10031000FFFFFFFFFFFFFFFFFFFFFFFFFFFFFFFFED
:10032000FFFFFFFFFFFFFFFFFFFFFFFFFFFFFFFFDD
:10033000FFFFFFFFFFFFFFFFFFFFFFFFFFFFFFFFCD
:10034000FFFFFFFFFFFFFFFFFFFFFFFFFFFFFFFFBD
:10035000FFFFFFFFFFFFFFFFFFFFFFFFFFFFFFFFAD
:10036000FFFFFFFFFFFFFFFFFFFFFFFFFFFFFFFF9D
:10037000FFFFFFFFFFFFFFFFFFFFFFFFFFFFFFFF8D
:10038000FFFFFFFFFFFFFFFFFFFFFFFFFFFFFFFF7D
:10039000FFFFFFFFFFFFFFFFFFFFFFFFFFFFFFFF6D
:1003A000FFFFFFFFFFFFFFFFFFFFFFFFFFFFFFFF5D
:1003B000FFFFFFFFFFFFFFFFFFFFFFFFFFFFFFFF4D
:1003C000FFFFFFFFFFFFFFFFFFFFFFFFFFFFFFFF3D
:1003D000FFFFFFFFFFFFFFFFFFFFFFFFFFFFFFFF2D
:1003E000FFFFFFFFFFFFFFFFFFFFFFFFFFFFFFFF1D
:1003F000FFFFFFFFFFFFFFFFFFFFFFFFFFFFFFFF0D
:10040000FFFFFFFFFFFFFFFFFFFFFFFFDEF9FFFF23
:1004100010B5054C237833B9044B13B10448AFF33E
:1004200000800123237010BD58EEFF1F0000000064
:1004300008350000084B10B51BB108490848AFF358
:1004400000800848036803B910BD074B002BFBD0A0
:10045000BDE81040184700BF000000005CEEFF1F21
:100460000835000054EEFF1F0000000008B5002111
:100470000B2000F095F901210D2000F091F91621D3
:10048000054801F03BFA054801F068FB4FF47A702B
:10049000BDE8084000F08AB90433000060E5FF1FA2
:1004A0002DE9F04F012183B00D2000F073F90520F4
:1004B00000F07CF900210D2000F06CF94FF4486346
:1004C000013BFDD141F2883201210B2000F0BAFA44
:1004D00001F022FF4A4C02250F4602460B46064613
:1004E00000954848C4E9006701F08AFB454801F0DF
:1004F00035FBD4E900673AA3D3E9002330463946F7
:1005000002F010FA10B903B0BDE8F08F0FF2D8096D
:10051000D9E900893C4BDFF808A1DFF808B1C3E94D
:10052000008932463B463046394601F0B9FD024665
:100530000B462FA1D1E9000102F08EF84246064693
:100540000F464B46CAE9006701F05CFF32463B4666
:1005500001F058FF00222D4B01F054FF26A3D3E9F0
:10056000002301F04FFF24A3D3E9002301F04AFF49
:1005700002460B460020264902F06EF81CA3D3E980
:10058000002301F03FFFCBE900010D21214801F0DC
:10059000B5F9D4E9002300951A4801F031FB0F2189
:1005A0001D4801F0ABF9DAE900230095154801F088
:1005B00027FB0F21194801F0A1F9DBE90023009581
:1005C000104801F01DFB0F4801F0C8FA4FF47A7093
:1005D00003B0BDE8F04F00F0E9B800BFAFF3008012
:1005E000000000A09999B93F000000A0F7C6B03EF6
:1005F0000000000080842E4100000000FA21094024
:1006000080EEFF1F60E5FF1F88EEFF1F0000104017
:100610000000F03F1C3300002C3300003C3300008E
:1006200078EEFF1F90EEFF1F08B5104C08E023681E
:1006300059050DD423681A050FD42368DB0411D49F
:1006400023685803F3D500F0EBFA23685905F1D578
:1006500000F00EF823681A05EFD500F009F82368BA
:10066000DB04EDD500F004F8EAE700BF3480044075
:1006700008B5FFF7D9FF00BF014B10221A80704761
:1006800000200540704700BF094908B50B6830B12C
:100690006A461844A2F58062904202D20860184669
:1006A00008BD02F07FF90C2303604FF0FF3008BD56
:1006B00058E5FF1F10B40F4B53F8302092F88042DA
:1006C0002CB1012369B182F8803010BC704703EB74
:1006D000C0035B681A6841B922F002021A6010BCBC
:1006E000704782F8003110BC704742F003021A6074
:1006F00010BC70474C3300001C4A02EBC0030129B8
:100700005B6811D004291BD052F83000002280F819
:10071000802229B1022920D0032922D01A607047F3
:100720004FF480721A60704752F830004FF4A27292
:1007300080F880121A601A6822F020021A6070474E
:1007400052F830104FF4A272012081F880021A6032
:100750001A6842F020021A60704740F203121A60D1
:1007600070474FF481721A60704700BF4C3300002D
:1007700030B4054B054D064C002210211A602A604A
:100780002060196030BC704714D0034004D003408F
:1007900000D00340212801D8FFF78CBF704700BF6D
:1007A000212801D8FFF7A8BF704700BF2DE9F84303
:1007B000054672B6204F214B214A1B683C681268DF
:1007C00062B6520102D5322B88BF013495B3C3F50E
:1007D000BB331C4EDFF86490DFF86480FF334FF4C6
:1007E0007A72A6FB031302FB04F404EB931472B6B3
:1007F000D9F800103A68D8F800E062B6C1F5BB330A
:10080000FF33A6FB03031EF0806FC4EB93134FF47A
:100810007A7002D0322988BF013200FB0233B3F56F
:100820007A7F04D3013D05D004F57A74DFE701F047
:10083000DBFADCE7BDE8F88398EEFF1F18E000E084
:1008400004ED00E0ABAAAAAAF8B5224B2249DFF8D2
:10085000A4E0DFF8A4C0214D214C224A224F234EB0
:100860004FF4807018604FF4007018604FF480608F
:1008700018604FF4006018604FF48050186000203A
:10088000086028234BF6FF71CCF80010CEF800303A
:100890002B60136023603B603360AB62936209227C
:1008A00044F8242CC7F8D80F04F57F641048C6F824
:1008B000D41FC5F8F83F2360026001F00BFB19203C
:1008C000FFF774FF00F012FF40F21310BDE8F8408C
:1008D000FFF76CBF04E100E0048003401480034094
:1008E000248003401C8003402C800340348003405C
:1008F000009003400C80034008800340C1EBC1011D
:10090000490001E0013917D00378002BFAD101E04A
:10091000013911D00378002BFAD030B472B61C4DD7
:100920001C4A1D4B12682C681B6862B65B0107D518
:10093000322A05D9013403E000207047013924D060
:100940000378002BFAD172B6124B134819682B6842
:10095000006862B6400102D5322988BF01330F48D2
:10096000C2F5BB32FF32C1F5BB31A0FB0252FF31F1
:10097000A0FB010192094FF47A70C2EB911200FBC7
:10098000142200FB032030BC7047002030BC7047AD
:1009900098EEFF1F18E000E004ED00E0ABAAAAAA61
:1009A000C1EBC101490001E0013917D00378002BE8
:1009B000FAD001E0013911D00378002BFAD130B41C
:1009C00072B61C4D1C4A1D4B12682C681B6862B61F
:1009D0005B0107D5322A05D9013403E000207047B6
:1009E000013924D00378002BFAD072B6124B134889
:1009F00019682B68006862B6400102D5322988BFA9
:100A000001330F48C2F5BB32FF32C1F5BB31A0FB49
:100A10000252FF31A0FB010192094FF47A70C2EB40
:100A2000911200FB142200FB032030BC7047002011
:100A300030BC704798EEFF1F18E000E004ED00E0C6
:100A4000ABAAAAAA21280DD8074B53F8300021B928
:100A5000114600F50070FFF7A3BF114600F50070C6
:100A6000FFF74CBF002070474C330000431E032BA0
:100A700014D872B60A4951F8230068B170B4094C11
:100A8000058834F81320466841F82360521B24F887
:100A9000132062B670BC704762B670470020704782
:100AA000F4EEFF1FF0EFFF1F013803280BD872B6DA
:100AB000074B53F8203043B100205B680130002B16
:100AC000FBD162B67047002070471846F9E700BFB7
:100AD00048EFFF1F30B472B62B4A13781D0706D5B6
:100AE0002A4B196A002936D0996A002941D05378D7
:100AF0001C0706D5254B196C00293ED0996C00299E
:100B000039D09378190705D5204B196E002936D0B6
:100B1000996E89B1D3781B0707D51C4BD3F8802079
:100B20007AB3D3F8882011213AB162B6184B00226B
:100B30001A7030BC00F056BE0D21154C154D2278B0
:100B400043F8315003EBC1030830013A586022707A
:100B500062B630BC704704220D4C0F4D217843F82B
:100B6000325003EBC20308304A1E5860227062B64E
:100B7000EFE70521E1E70921DFE70822ECE70C2296
:100B8000EAE71022E8E700BF9434000000E0FF1F0E
:100B900071EFFF1FC800400088004000431E032B78
:100BA0001DD81B4A400140F0100030B4104472B60A
:100BB000184CE25C032A1BD8DFE802F0021215177A
:100BC00003220D88E25410F0080F14BFC8238823B5
:100BD00043EA054308310360416062B630BC7047A8
:100BE00008300222EDE70522EBE708300422E8E7AF
:100BF000094A52F8230038B1084A52F823004160EC
:100C000042F8231062B6E9E742F82310034AF7E7F7
:100C100000E0FF1F80EFFF1F48EFFF1F58EFFF1F8F
:100C20002DE9F04FDFF818B3DFF818A387B044E0E0
:100C3000AE4F4FEA930807EBC809013ED9F80420EC
:100C400003F00803F6B2A2F1080003F0FF04002B42
:100C500040F0048157F838301B0C99B222F8081C78
:100C6000002B00F0F280A24B22F8064C42F8044C14
:100C700053F82620002A00F06E819E4D55F826304C
:100C800058609D4C45F8260034F81630194424F875
:100C9000161000F087FD002800F05681974A984B07
:100CA00019F0080F00F1080018BF1346C9F8040036
:100CB00047F8383008238BF800309BF80040E4B246
:100CC00061071BD58F4B1B78ABB18F490A7802F0B7
:100CD000FF032AB1013BDBB20B70002B00F0EF8465
:100CE0008A490A7802F0FF032AB1013BDBB20B709C
:100CF000002B00F0F78004238BF8003004F0080389
:100D000003F0FF02002B00F0D6809AF80030DBB22F
:100D10001E098DD19C08DFF8D49159F8342009EBD5
:100D2000C401C2F38302013A49680C2A7ED8DFE885
:100D300002F081817D7D7D7D7D7D477D7D7D07000C
:100D40000868734D4A68734F734E286081B240F251
:100D500081606A4B6A604FF0010E0022814249F8BF
:100D600034303A60C9F81020C9F8182086F800E03D
:100D70005E4C00F2F480B1F5D06F80F07883B1F56D
:100D8000817F00F0628300F28782802900F0EC828C
:100D9000822940F01E83A98801F07F01042900F216
:100DA00018835E485E4C89000844227062700278A5
:100DB000930740F1798384F800E04FF0020ED8E207
:100DC000544F3A6842B3574B534E574918883478BA
:100DD0000D784028864645F0020828BF4FF0400EA7
:100DE000002C84F001043470CEEB00000CBF88248A
:100DF000C82409EBC80680B285F0010544EA0E4418
:100E00007260188049F8384072440D7018B9BEF10C
:100E1000400F18BF00223A603D4B1A88B2F5A06F10
:100E200004D100219A785970404B1A70404A01232E
:100E300013703FE7364A158842F22100854200F0E0
:100E4000FF812E4A49F83420F0E72C4A2C4B19F048
:100E5000080F18BF134647F838302BE700F0C2FCE4
:100E6000344A354952F82630002B00F0B6815868D4
:100E70008C5D42F8260003F10802C9F80420032C17
:100E800005D8DFE804F0120F150204228A551A88EB
:100E900019F0080F0CBF8823C82343EA024347F820
:100EA000383007E702228A55F1E703228A55EEE738
:100EB00005228A55EBE7E00700F11A82210600F1CE
:100EC0004982A20706D51D4A1D4913780220DBB2CC
:100ED00013700870E30602D5194B10221A7007B080
:100EE000BDE8F08F00F0EAFD05E700BF00E0FF1F5E
:100EF000F4EEFF1FA0EEFF1FF0EFFF1FC800400041
:100F0000880040007CEFFF1F05EFFF1F84EFFF1FED
:100F100068EFFF1F9CEEFF1F04EFFF1FC02007407C
:100F200074EFFF1FB0EEFF1F70EFFF1F9820074008
:100F30009420074048EFFF1F80EFFF1F88200740E5
:100F40008020074090200740AB4A47F838001378CC
:100F500001331370AEE643F82600A84D91E642F245
:100F60002100814200F0358100F2AF81B1F5086FB8
:100F700000F01B82B1F5106F40F02B82226AA0496D
:100F8000A8780870120600F14583D9F828209D49F9
:100F9000130600F13A83D9F830209A49150600F17A
:100FA0002F83D9F838209749140600F12483D9F803
:100FB00040209449100600F11983D9F8482091493E
:100FC000120600F10E83D9F850208E49130600F165
:100FD0000383D9F858208B49150600F1F882D9F817
:100FE00060208849140600F12983D9F868208549D2
:100FF000100600F11E83D9F870208249120600F114
:101000001383D9F878207F49130600F10883D9F8B3
:1010100080207C49150600F11C83D9F88820794985
:10102000140600F11083D9F890207649100600F1DB
:10103000C882D9F898207349120600F1BC82724820
:10104000724A7349019073486C4D734C04970023A6
:1010500005960295804617460E461D46039438684D
:1010600028B1446800F0BEFB2046002CF9D10023D3
:101070003B60029B30681A46002342F8253028B1B5
:10108000446800F0AFFB2046002CF9D1002232600A
:10109000019A98F800301146002241F8042B039A77
:1010A0000191023B4FF0000122F81510032B09D8E3
:1010B000DFE813F04B0104004B0104004FF0010383
:1010C00088F800300135042D07F1040706F1040605
:1010D00008F10108C3D1514C514B2278464D049F71
:1010E000059E002129701A70130700F14F82627863
:1010F0004C49DFF810810A7010074FF00001C9F861
:101100003010C9F8381000F12B824749A2780A70D4
:101110000021C9F85010C9F858101107DFF8E48011
:1011200000F1DC81E2784149364C0A700021120757
:10113000C9F87010C9F8781000F1B98133780193BB
:10114000002183F00102C9F89010C9F8981000201E
:10115000029080468446044635490D7845F0020EDB
:1011600009EBCE030393019B002B039B5C600CBF38
:101170008824C82444EA080385F0010449F83E3075
:1011800032700C70DFF87CE02A4BDFF8A480002876
:1011900040F02681BCF1400F1BD144F0020C09EB5A
:1011A000CC03029CDFF85CE05C60002A40F02E81FA
:1011B000020442F088029DF804304EF83C200444BA
:1011C00033700D702346402803D100201A4A3B603B
:1011D00010801A4A0123137028E68B5D032B00F25E
:1011E0002D8101A252F823F0B50C0000B50C0000CF
:1011F0003F1300004513000071EFFF1FA0EEFF1F1B
:101200007CEFFF1F00E0FF1F58EFFF1FF4EEFF1FF2
:1012100048EFFF1F80EFFF1FF0EFFF1F9434000027
:10122000C4200740C8200740CC200740D0200740FA
:1012300070EFFF1F04EFFF1FB0EEFF1F9420074069
:10124000928892B9B14A0D784878157050708D78AF
:10125000C8789570D07010680D79157186284D7911
:1012600089795571917100F0A580A949A94E0A7834
:10127000307882F00105002842F002020D700CBFA8
:101280008821C82149F8321009EBC20280F0010020
:10129000002130705160D4E540F20232914240F0BA
:1012A0008D80A98801F07F01042900F292806A886C
:1012B000002A40F08E809848CDF804E08900084468
:1012C000017841F00201017041E742F221208142A0
:1012D0007BD1A988002940F0E480904B904A914846
:1012E000AC781D681560CDF804E00A4604702EE75E
:1012F0008D4B8E4886491A614FF0020E80F800E04F
:10130000854F0A708A49196099608A4E8A4D8B4CC4
:101310009A610D213970FF213170DFF840E22970A8
:101320002270874D874A8EF800109F27012406F807
:10133000047C5D600470DA6007B0BDE8F08F0023C4
:101340008B55B7E401238B55B4E44FF0000388F8C4
:101350000030B7E67049784B80220D2008701A7073
:10136000A2077FF5B7ADAEE5774C4FF0020E2270C5
:101370006270EA88724580F0A38165490D78402A41
:10138000944645F0020E28BF4FF0400C04EB0C03CE
:1013900009EBCE000293012344604FEA0C48CCEBEA
:1013A000020001930022C824E4E6684A664C1278E1
:1013B0002270DEE7664A0F21117056E7B1F5A06F83
:1013C00007D1012300220193C1E642F2213291426A
:1013D000F7D0514A0F231370544A0123137025E5A7
:1013E00040287FF6DAAE44F002040EEBC401029E00
:1013F0004E60BAB19DF80410564A19703346403811
:1014000088F8005040334EF83420DFE69DF8043071
:1014100033700204029B0D7042F0C80203444EF880
:101420003C20D0E69DF804101970029B404A88F8D1
:101430000050403840334EF83420C7E619F0080F0A
:101440000CBF022303238B5534E4A98801F07F01EC
:101450000429BED86A88002ABBD12F48CDF804E001
:1014600089000844017821F0020101706FE63A4AD0
:101470005468002CADD06888B5F804E003E00C3265
:101480005468002CA5D013888342F8D15388734543
:10149000F5D1000A03280CBF94F800E0B2F808E088
:1014A00067E7CDF804E052E64FF0020E61E700F086
:1014B00079F9002800F0F18008301D4AC4F8840052
:1014C000C4F8802000F06EF9002800F0E0800830B9
:1014D000204AC9F88C00C9F888202FE600F062F98C
:1014E000002800F0E6800830114AC8F86400C8F807
:1014F000602000F057F9002800F0D5800830154A28
:10150000C9F86C00C9F868200CE600BFF8EFFF1FAF
:1015100070EFFF1F04EFFF1FC020074098EEFF1F72
:1015200000F0FF1F94EFFF1F00E0FF1F9420074013
:10153000880040008820074080200740982007400E
:10154000B4EEFF1F08EFFF1F74EFFF1F7CEFFF1FBC
:1015500005EFFF1FC8004000983400008C200740B2
:1015600000F020F9002800F08C8008305D4AC8F8AF
:101570004400C8F8402000F015F900287BD008305E
:10158000594AC9F84C00C9F84820BEE500F00AF9EC
:1015900000286AD00830534AC9F82400C9F820202E
:1015A00000F000F900285AD008304F4AC9F82C0042
:1015B000C9F828209BE5D1F89C00083800F012F902
:1015C0003DE5D1F89400083800F00CF931E5C86D1C
:1015D000083800F007F902E5486D083800F002F914
:1015E000F7E4C86C083800F0FDF8ECE4486C083803
:1015F00000F0F8F8E1E4C86B083800F0F3F8D6E43E
:10160000486B083800F0EEF8CBE4C86A083800F000
:10161000E9F8C0E4606A083800F0E4F8B5E4C86F9F
:10162000083800F0DFF8F2E4486F083800F0DAF824
:10163000E7E4C86E083800F0D5F8DCE4486E0838F6
:1016400000F0D0F8D1E4D1F88C00083800F0CAF8E6
:10165000E9E4D1F88400083800F0C4F8DDE42A7821
:10166000C9F8280001322A7041E52A78C9F820001B
:1016700001322A7094E72A78C9F8480001322A70AA
:1016800043E52A78C8F8400001322A7073E72A78C7
:10169000C9F8880001322A7050E52A78C4F8800021
:1016A00001322A700EE72A78C9F8680001322A70E0
:1016B00038E52A78C8F8600001322A7019E700BEC0
:1016C000BEF1400FF44628BF4FF0400C04EB0C0372
:1016D00002930123CCEB0E004FEA0C480022019349
:1016E0003AE500BF88004000C80040002DE9F843FB
:1016F000204C00F08BFC002204F1A00023461A606D
:101700005A60083383424FF00001F8D11A4A1B4F48
:1017100013681B4D1B481C4EDFF87880DFF878C03B
:10172000DFF87890DFF878E043F480231360C4F3A7
:1017300007233B70C4F307432B70240EFF2302F5ED
:1017400028320470114D88F8003011488CF80030B0
:10175000D4323370012389F8003070268EF80010DF
:101760000824102107F8183C2E7004601170BDE8A1
:10177000F88300BF00E0FF1F348004409C20074036
:10178000B0200740B42007401020074023E400E0C9
:1017900004E100E0802007408820074094200740B3
:1017A0000021074072B60D480268B2FA82F30B2B93
:1017B00010DC4FF00041D94022EA0102026062B61B
:1017C000074803EBC303DB00C2180021C1501046D9
:1017D0005160704762B60020704700BF5CE5FF1F94
:1017E000F8E1FF1F0D4B0E4AC31AA2FB03231B098E
:1017F0000B2B0CD80B4A127852B972B60A484FF02C
:101800000041026821FA03F31A43026062B670478E
:10181000064A1278002AF0D0FFF75CB9F8E1FF1F02
:10182000398EE33871EFFF1F5CE5FF1F7CEFFF1F70
:1018300038B50F4D286878B143880288C118013344
:1018400093420C7A02D24380204638BDFFF7CAFF8C
:10185000002320462B6038BD064B1B782BB103209C
:10186000FFF704F928600028E6D14FF0FF3038BDBB
:1018700090EFFF1F7CEFFF1F10B5094C206818B1D7
:1018800043881844007A10BD064B1B782BB1032007
:10189000FFF7ECF820600028F2D14FF0FF3010BDC8
:1018A00090EFFF1F7CEFFF1F044B054A1B689088D9
:1018B0001BB11A885B88D31A1844704790EFFF1F3A
:1018C000F0EFFF1F0B4B1B789BB110B50A4C206843
:1018D00048B1FFF787FF002303202360FFF7C6F816
:1018E00030B1FFF77FFF0320FFF7C0F80028F8D1E1
:1018F00010BD70477CEFFF1F90EFFF1F2DE9F04FE9
:10190000DFF8F89083B0012289F80020019169B3D3
:10191000DFF8EC80364F019E8346D8F80000B0B364
:10192000344D4488C4F14001B14228BF314604EB34
:10193000010E00221FFA8EFE2A70761AA0F802E02D
:1019400000F1080251B1013C224459441BF8014BFB
:1019500002F8014F8B45F9D1B0F802E0BEF13F0F1C
:101960000BD8254A05211170002ED6D101980023ED
:1019700089F8003003B0BDE8F08F402202800146B4
:101980000420FFF70BF90022C8F80020E9E73A78B5
:101990002AB3184D4AF2F9244FF0010A07E0013C3E
:1019A00016D02A78A2B900F01FFA3A78BAB104200A
:1019B000FFF77AF80728F2D889F800A0FFF7F2FEBF
:1019C000C8F800000028ACD10C4B013C1870E8D1DD
:1019D00001234FF0FF302B7003B0BDE8F08F0023E0
:1019E0004FF0FF3089F8003003B0BDE8F08F00BF42
:1019F0007CEFFF1F8CEFFF1F84EFFF1F85EFFF1FA2
:101A000088EFFF1F00B583B002AB012103F8010D81
:101A10001846FFF773FF03B05DF804FB38B50E4DB1
:101A20000E4C28680123237028B1408800232370BE
:101A3000C0F1400038BD0A4B1B7813B9002020705C
:101A400038BD0420FFF730F80728F7D8FFF7AAFEC3
:101A500028600028E9D1F1E788EFFF1F85EFFF1F1D
:101A60007CEFFF1FF8B5114B1B788BB1104E114D59
:101A7000346801272F7064B10F4A638800271770FC
:101A8000214623800420FFF789F8376000232B705C
:101A9000F8BDFFF787FE084B28B1014604201C70F3
:101AA000FFF77CF8F2E71F70F0E700BF7CEFFF1F45
:101AB00088EFFF1F85EFFF1F84EFFF1F38B50E4B28
:101AC0001B7873B90D4C216861B103F0FF054B8899
:101AD0000B800420FFF762F8256038BD084B012217
:101AE0001A7038BDFFF75EFE0028F7D00146BDE84A
:101AF00038400420FFF752B885EFFF1F88EFFF1F23
:101B000084EFFF1F70B5EFF3108272B60C4C2068A3
:101B100080B10C4E00254369236073B19D6102B909
:101B200062B6457783689847EFF3108272B62068F3
:101B30000028F0D102B962B670BD3360EFE700BF94
:101B400098EFFF1F9CEFFF1FFFF7DCBF024A1368EF
:101B500001331360704700BF98EEFF1F00B5064ABF
:101B6000036812885B6883B001A9ADF804200222E3
:101B7000984703B05DF804FB5C340000F0B50746FD
:101B80008BB0002A33D0012A08BF0A2251B3212486
:101B900000E0F4B2B1FBF2F502FB1511C8B209295D
:101BA00000F1300198BFC8B20AA988BF373021447C
:101BB00088BFC0B201F8240C661E2946002DE8D16A
:101BC00033B1013CE4B20AAB23442D2203F8242CA8
:101BD0003B6801AA11195B683846C4F12202984794
:101BE0000BB0F0BD30228DF825202124E8E70368F2
:101BF000C9B21B6898470BB0F0BD00BFFFFFFFFFE5
:101C00002DE9F04385B080461946104616461F461A
:101C10009DF8305000F090FE002840F0B18027F091
:101C20000044304621464FF0FF32594B00F084FE0D
:101C300098B9304621464FF0FF32554B00F05EFE1A
:101C400058B9D8F8003053495B684046032298479A
:101C50008146484605B0BDE8F083304639464FF02E
:101C600060424D4B00F05EFE002870D13046394690
:101C70004FF06042494B00F037FE002867D13046F4
:101C800039460022002300F02FFE002863D1814650
:101C9000002D65D0424B00240022104619463AA37D
:101CA000D3E9002300F0AEFB01340B46E1B28D42D4
:101CB0000246F2D83046394600F0F2F90F460646A1
:101CC00000F050FE044600F027FB02460B4630466B
:101CD000394600F0E3F94B4606460F460A222146F4
:101CE0004046FFF74BFF0F2D28BF0F2501352E2350
:101CF0008146EDB28DF8003001240022294B304698
:101D0000394600F07FFB0F46064600F02BFE04AB81
:101D10002344C0B200F1300203F8102C00F00CFB99
:101D200002460B463046394600F0B8F90134E4B2B9
:101D3000AC4206460F46E0D1D8F8003022465B6838
:101D4000404669469847484605B0BDE8F083D8F854
:101D50000030154978E707F100474FF0010997E790
:101D600000220F4B3046394600F09AF900F0FAFD98
:101D70004B4601460A224046FFF700FF814668E7CE
:101D8000D8F8003009495FE7000000A09999B93FF1
:101D9000FFFFEF7F68340000FFFFEF41FFFFEFC15F
:101DA0000000E03F00002440643400006034000084
:101DB00008B5FEF75BFBFEF773FB00F015F8FAE7DA
:101DC000FFF780BDFFF758BDFFF732BDFFF76CBDD1
:101DD000FFF748BEFFF722BE08461146FFF78EBD4B
:101DE0000846FFF70FBE00BF2DE9F843314E3378A8
:101DF00093B1314F3A787AB90122D9073A7036D483
:101E00009A0719D400225B073A7005D52B4B1A6844
:101E100012B1EFF305820AB1BDE8F883EFF3108148
:101E200072B6186818B1264C2278002A2ED00029E4
:101E3000F2D162B6BDE8F883DFF8908098F8002010
:101E4000002ADFD0DFF88890002405E0013498F8FC
:101E50000030E4B2A34212D959F824502B68284626
:101E60001B6998470028F1D02B699847EEE7FFF7E8
:101E70001BFDC8B9134B1B781BB93378C0E7337807
:101E8000C0E7337803F0FE033370B9E745691D609E
:101E9000012323705DB1AA6101B962B600254577BF
:101EA000836898472570B7E700F0F2F8E2E7064B41
:101EB0001D60F1E770E5FF1FA9EFFF1FA4EFFF1FF3
:101EC000A8EFFF1F16E6FF1FA0EFFF1FB8EFFF1FD1
:101ED000ACEFFF1F10B43048304A314BE121602491
:101EE000047011701B782F49082B37D00A2B3BD078
:101EF0000C2B3FD02C4B3D20122208601A602B4B3C
:101F00001B78ABB12A4B01221A602A4B1B78012B9C
:101F100014D9042B1AD9082B35D9102B264B94BF72
:101F2000862287221A60254B01221A7010BC704746
:101F30001F4A13601F4B1B78012BEAD81E4B8022CF
:101F40001A601E4B01221A7010BC70471A4B842273
:101F50001A601A4B01221A7010BC7047124B0120F4
:101F6000132208601A60CAE70F4B39201322086059
:101F70001A60C4E703F1804303F56C333520122265
:101F800008601A60BBE70C4B85221A600B4B0122DC
:101F90001A7010BC704700BF004007400140074066
:101FA00071E5FF1F08B003400CB00340ABEFFF1F0B
:101FB00020B0034072E5FF1F24B00340AAEFFF1FCB
:101FC000F0B44D1E2E46002400E00134B0FBF2F3C5
:101FD00002FB1300092800F130078ABF3730F8B23E
:101FE000C0B206F8010F1846002BEED10A19537043
:101FF0004CB1107815F8016F28700133E01A834254
:1020000002F80169F5DB0846F0BC704770B584B092
:1020100072B6194B194D1A48702241260F2480219F
:102020001A702E701A460470197013781B06FCD5AE
:10203000144B186862B6144B144C984298BF00EBCE
:10204000800001A998BF40000A22FFF7B9FF01A94B
:102050002046002311F8012B01333AB10A2B20F856
:10206000022FF7D11623237004B070BD5B00DBB2E2
:10207000237004B070BD00BF0000024007000240A2
:1020800006000240080002407F96980000E6FF1F0D
:10209000704700BF81F0004102E000BF83F00043C1
:1020A00030B54FEA41044FEA430594EA050F08BFF3
:1020B00090EA020F1FBF54EA000C55EA020C7FEAB7
:1020C000645C7FEA655C00F0E2804FEA5454D4EB34
:1020D0005555B8BF6D420CDD2C4480EA020281EAFE
:1020E000030382EA000083EA010180EA020281EA36
:1020F0000303362D88BF30BD11F0004F4FEA013188
:102100004FF4801C4CEA113102D0404261EB410196
:1021100013F0004F4FEA03334CEA133302D052421C
:1021200063EB430394EA050F00F0A780A4F10104D8
:10213000D5F1200E0DDB02FA0EFC22FA05F2801812
:1021400041F1000103FA0EF2801843FA05F35941F8
:102150000EE0A5F120050EF1200E012A03FA0EFC77
:1021600028BF4CF0020C43FA05F3C01851EBE371A1
:1021700001F0004507D54FF0000EDCF1000C7EEBBE
:1021800000006EEB0101B1F5801F1BD3B1F5001FFC
:102190000CD349085FEA30004FEA3C0C04F101041B
:1021A0004FEA445212F5800F80F09A80BCF1004F44
:1021B00008BF5FEA500C50F1000041EB045141EAC6
:1021C000050130BD5FEA4C0C404141EB010111F4C7
:1021D000801FA4F10104E9D191F0000F04BF014672
:1021E0000020B1FA81F308BF2033A3F10B03B3F150
:1021F00020020CDA0C3208DD02F1140CC2F10C02E0
:1022000001FA0CF021FA02F10CE002F11402D8BF3D
:10221000C2F1200C01FA02F120FA0CFCDCBF41EA09
:102220000C019040E41AA2BF01EB0451294330BDD8
:102230006FEA04041F3C1CDA0C340EDC04F11404B5
:10224000C4F1200220FA04F001FA02F340EA03008C
:1022500021FA04F345EA030130BDC4F10C04C4F1D2
:10226000200220FA02F001FA04F340EA03002946B2
:1022700030BD21FA04F0294630BD94F0000F83F4FC
:10228000801306BF81F480110134013D4EE77FEADF
:10229000645C18BF7FEA655C29D094EA050F08BF2B
:1022A00090EA020F05D054EA000C04BF194610460C
:1022B00030BD91EA030F1EBF0021002030BD5FEA50
:1022C000545C05D14000494128BF41F0004130BD78
:1022D00014F580043CBF01F5801130BD01F00045CC
:1022E00045F0FE4141F470014FF0000030BD7FEA3F
:1022F000645C1ABF194610467FEA655C1CBF0B463A
:10230000024650EA013406BF52EA033591EA030F50
:1023100041F4002130BD00BF90F0000F04BF002148
:10232000704730B54FF4806404F132044FF000057B
:102330004FF0000150E700BF90F0000F04BF0021F4
:10234000704730B54FF4806404F1320410F000455A
:1023500048BF40424FF000013EE700BF42004FEA55
:10236000E2014FEA31014FEA02701FBF12F07F43D2
:1023700093F07F4F81F06051704792F0000F14BFCF
:1023800093F07F4F704730B54FF4607401F0004513
:1023900021F0004120E700BF50EA010208BF70476A
:1023A00030B54FF000050AE050EA010208BF70475F
:1023B00030B511F0004502D5404261EB41014FF4C8
:1023C000806404F132045FEA915C3FF4DCAE4FF0CC
:1023D00003025FEADC0C18BF03325FEADC0C18BFB3
:1023E000033202EBDC02C2F1200300FA03FC20FA04
:1023F00002F001FA03FE40EA0E0021FA02F1144451
:10240000C1E600BF70B54FF0FF0C4CF4E06C1CEA65
:1024100011541DBF1CEA135594EA0C0F95EA0C0FDA
:1024200000F0DEF82C4481EA030621EA4C5123EA4D
:102430004C5350EA013518BF52EA033541F480117C
:1024400043F4801338D0A0FB02CE4FF00005E1FB2F
:1024500002E506F00042E0FB03E54FF00006E1FB79
:1024600003569CF0000F18BF4EF0010EA4F1FF04BC
:10247000B6F5007F64F5407404D25FEA4E0E6D41FC
:1024800046EB060642EAC62141EA55514FEAC5200D
:1024900040EA5E504FEACE2EB4F1FD0C88BFBCF589
:1024A000E06F1ED8BEF1004F08BF5FEA500E50F13A
:1024B000000041EB045170BD06F0004646EA010100
:1024C00040EA020081EA0301B4EB5C04C2BFD4EB32
:1024D0000C0541EA045170BD41F480114FF0000E2B
:1024E000013C00F3AB8014F1360FDEBF002001F099
:1024F000004170BDC4F10004203C35DA0C341BDC13
:1025000004F11404C4F1200500FA05F320FA04F0E4
:1025100001FA05F240EA020001F0004221F0004118
:1025200010EBD37021FA04F642EB06015EEA430E8B
:1025300008BF20EAD37070BDC4F10C04C4F12005BB
:1025400000FA04F320FA05F001FA04F240EA02006E
:1025500001F0004110EBD37041F100015EEA430E3F
:1025600008BF20EAD37070BDC4F1200500FA05F25F
:102570004EEA020E20FA04F301FA05F243EA0203DE
:1025800021FA04F001F0004121FA04F220EA0200ED
:1025900000EBD3705EEA430E08BF20EAD37070BD33
:1025A00094F0000F0FD101F00046400041EB010113
:1025B00011F4801F08BF013CF7D041EA060195F0F5
:1025C000000F18BF704703F00046520043EB0303AF
:1025D00013F4801F08BF013DF7D043EA060370479C
:1025E00094EA0C0F0CEA135518BF95EA0C0F0CD0A7
:1025F00050EA410618BF52EA4306D1D181EA0301ED
:1026000001F000414FF0000070BD50EA410606BFE6
:102610001046194652EA430619D094EA0C0F02D12B
:1026200050EA013613D195EA0C0F05D152EA033670
:102630001CBF104619460AD181EA030101F000418E
:1026400041F0FE4141F470014FF0000070BD41F0D7
:10265000FE4141F4780170BD70B54FF0FF0C4CF4B1
:10266000E06C1CEA11541DBF1CEA135594EA0C0FD0
:1026700095EA0C0F00F0A7F8A4EB050481EA030E1D
:1026800052EA03354FEA013100F088804FEA033304
:102690004FF0805545EA131343EA12634FEA0222D2
:1026A00045EA111545EA10654FEA00260EF0004193
:1026B0009D4208BF964244F1FD0404F5407402D2E5
:1026C0005B084FEA3202B61A65EB03055B084FEA76
:1026D00032024FF480104FF4002CB6EB020E75EB73
:1026E000030E22BFB61A754640EA0C005B084FEA9B
:1026F0003202B6EB020E75EB030E22BFB61A754618
:1027000040EA5C005B084FEA3202B6EB020E75EB62
:10271000030E22BFB61A754640EA9C005B084FEADA
:102720003202B6EB020E75EB030E22BFB61A7546E7
:1027300040EADC0055EA060E18D04FEA051545EAD6
:1027400016754FEA06164FEAC30343EA52734FEA7F
:10275000C2025FEA1C1CC0D111F4801F0BD141EAF8
:1027600000014FF000004FF0004CB6E711F4801F5D
:1027700004BF01430020B4F1FD0C88BFBCF5E06F3D
:102780003FF6AFAEB5EB030C04BFB6EB020C5FEA4D
:10279000500C50F1000041EB045170BD0EF0004EA2
:1027A0004EEA113114EB5C04C2BFD4EB0C0541EAD4
:1027B000045170BD41F480114FF0000E013C90E6D1
:1027C00045EA060E8DE60CEA135594EA0C0F08BF95
:1027D00095EA0C0F3FF43BAF94EA0C0F0AD150EA94
:1027E00001347FF434AF95EA0C0F7FF425AF104627
:1027F00019462CE795EA0C0F06D152EA03353FF44F
:10280000FDAE1046194622E750EA410618BF52EACB
:1028100043067FF4C5AE50EA41047FF40DAF52EA9F
:1028200043057FF4EBAE12E74FF0FF3C06E000BF3C
:102830004FF0010C02E000BF4FF0010C4DF804CD49
:102840004FEA410C7FEA6C5C4FEA430C18BF7FEA09
:102850006C5C1BD001B050EA410C0CBF52EA430C37
:1028600091EA030F02BF90EA020F0020704710F1B7
:10287000000F91EA030F58BF994208BF90422CBF46
:10288000D8176FEAE37040F0010070474FEA410C3F
:102890007FEA6C5C02D150EA013C07D14FEA430C5D
:1028A0007FEA6C5CD6D152EA033CD3D05DF8040BCE
:1028B000704700BF8446104662468C461946634600
:1028C00000E000BF01B5FFF7B7FF002848BF10F1D7
:1028D000000F01BD4DF808EDFFF7F4FF0CBF01201C
:1028E00000205DF808FB00BF4DF808EDFFF7EAFF98
:1028F00034BF012000205DF808FB00BF4DF808ED53
:10290000FFF7E0FF94BF012000205DF808FB00BF47
:102910004DF808EDFFF7CEFF94BF012000205DF8D1
:1029200008FB00BF4DF808EDFFF7C4FF34BF0120DE
:1029300000205DF808FB00BF4FEA410C7FEA6C5CA9
:1029400002D150EA013C0AD14FEA430C7FEA6C5CA9
:1029500002D152EA033C02D14FF0000070474FF021
:10296000010070474A0011D212F5001211D20DD5A4
:102970006FF47873B3EB62520ED44FEAC12343F085
:10298000004343EA505323FA02F070474FF000002F
:10299000704750EA013002D14FF0FF3070474FF0DE
:1029A00000007047014B1868704700BF40EAFF1FE6
:1029B00070B50F4E0F4D761BB61018BF002405D012
:1029C000013455F8043B9847A642F9D10A4E0B4D05
:1029D000761B00F08DFDB61018BF002406D0013420
:1029E00055F8043B9847A642F9D170BD70BD00BFB1
:1029F000FC340000FC34000004350000FC3400000E
:102A0000024B0146186800F003B800BF40EAFF1F00
:102A10002DE9F04F01F10B05162D83B0064640F26B
:102A20009F8035F0070500F1BF80A94200F2BC800D
:102A300000F0A6FAB5F5FC7FC0F09C826B0A00F0AE
:102A4000BA80042B00F28381A80900F1390E4FEA05
:102A50004E033830C44F07EB8303A3F108015C68D1
:102A6000A14207D1ACE0002A80F2AC80E468A14228
:102A700000F0A680636823F003035A1B0F2AF2DDDF
:102A8000B9493C6901F1080E744500F0B3816368EF
:102A900023F003035A1B0F2A00F39981002AC1F87F
:102AA00014E0C1F810E080F29E80B3F5007F80F062
:102AB0006781DB0803F1010C01229B1002FA03F38A
:102AC0004A6851F83C80C4F8088001EBCC091A43ED
:102AD000A9F10803E3604A6041F83C40C8F80C40A3
:102AE000831001249C40944200F28A80144206D153
:102AF00020F003006400144200F10400FAD007EB58
:102B0000C009CC468046DCF80C108C4507D173E137
:102B1000002A80F28181C9688C4500F06D814B6884
:102B200023F003035A1B0F2AF2DD0C46D1F80CC028
:102B300054F8088F4B1945F001054D6042F0010132
:102B4000C8F80CC03046CCF808807B613B61C3F804
:102B50000CE0C3F808E059609A5000F013FA1FE047
:102B6000102921D800F00CFA1025062302207E4FF0
:102B700007EB8303A3F108025C68944200F04581EF
:102B80006368E168A56823F00303234430465A686C
:102B9000E96042F001028D605A6000F0F3F90834F8
:102BA000204603B0BDE8F08F00240C23204633609C
:102BB00003B0BDE8F08F80234FF0400E3F2049E77F
:102BC00070465DE72344E1685A68A56842F0010257
:102BD000E96030468D605A6000F0D4F90834204630
:102BE00003B0BDE8F08F234430465A6842F001023A
:102BF0005A6000F0C7F90834204603B0BDE8F08FF2
:102C0000BC68636823F00308A84504D3C5EB080338
:102C10000F2B00F38C80554BDFF860911A68D9F8C0
:102C2000003001332A4404EB080A00F0608102F509
:102C300080520F3222F47F6222F00F02114630469A
:102C4000019200F0A1F9B0F1FF3F8346019A00F034
:102C50005881824500F2FC80454B1968DA451144E1
:102C6000196000F05381D9F80000DFF810E101305D
:102C70001BBFCAEB0B0A5144CEF800B019601BF021
:102C8000070100F01781C1F10800C1F580518344AC
:102C900008315A44C2F30B02C2EB010949463046DF
:102CA000019300F071F9431C019B00F03F81CBEBD5
:102CB00000024A4442F001021968C7F808B04944CA
:102CC000BC42CBF804201960DFF8A49016D0B8F10C
:102CD0000F0F40F2FD806268A8F10C0323F0070398
:102CE000E01802F001024FF0050E1A430F2B62604C
:102CF000C0F804E0C0F808E000F21C811D4BBC687D
:102D00001A68914288BF19601B4B1A689142626829
:102D100088BF196022F003029542A2EB050301D897
:102D20000F2B04DC304600F02DF9002438E762193F
:102D300043F0010345F0010565603046BA60536019
:102D400000F020F90834204603B0BDE8F08F142BC2
:102D500071D9542B00F2A480280B00F16F0E4FEABA
:102D60004E036E3076E600BF44EAFF1FC4EFFF1F3C
:102D7000C8EFFF1FC0EFFF1FBCEFFF1F50EEFF1F8C
:102D80005A0A042A5ED9142A00F2B38002F15C01C7
:102D900049005B3207EB810C57F82110DFF8DC812A
:102DA000ACF1080C8C4500F088804A6822F00302E0
:102DB000934202D289688C45F7D1D1F80CC07A6869
:102DC000C4F80CC0A160CCF80840CC6088E6631958
:102DD00042F0010745F00105656030464B610B612B
:102DE000C3F80CE0C3F808E05F609A50083400F0C4
:102DF000C9F8D5E64A6873E608F1010818F0030F30
:102E00000CF1080C7FF47FAE30E0DC68A34208BF11
:102E100002303FF435AEB3E60B440C465A68C9683D
:102E200054F8085F42F001025A603046E9608D6054
:102E300000F0A8F8B4E603F15C0E03F15B004FEA82
:102E40004E0307E69A0902F1390149003832A1E739
:102E5000BC424A4B3FF400AF9C68626822F0030218
:102E60005AE759F80839994540F0828010F0030F6D
:102E700000F1FF30F5D17B6823EA04037B60640036
:102E80009C423FF6BDAE002C3FF4BAAE1C42404619
:102E90007FF435AE64001C4200F10400FAD02EE647
:102EA000B3F5AA7F18D8E80B00F1780E4FEA4E036D
:102EB0007730CFE54FF48051EBE60121D8F80430AC
:102EC000921001FA02F21A43C8F80420614677E72B
:102ED0000123CBF8043025E740F25452934220D826
:102EE000A80C00F17D0E4FEA4E037C30B2E51032A3
:102EF000A4E6542A26D81A0B02F16F0149006E325B
:102F000048E7BC68626822F0030205E7CAF30B00D9
:102F100000287FF4A8AE4244BB6842F001025A6028
:102F2000ECE6FE234FF07F0E7E2093E501224FF06A
:102F30000009C1E604F10801304600F0A9F8D9F80B
:102F40000010DBE6B2F5AA7F05D8DA0B02F17801B2
:102F5000490077321EE740F254518A4205D89A0C54
:102F600002F17D0149007C3214E7FE217E2211E747
:102F70007B6884E7E808431C5B00F8E544EAFF1F30
:102F8000704700BF704700BF38B5074C00230546A7
:102F900008462360FDF778FB431C00D038BD23684A
:102FA000002BFBD02B6038BD04F0FF1F024B13B188
:102FB000024800F005B8704700000000CD2F000067
:102FC000002301461A46184600F04AB938B5074DA5
:102FD000074C2C1BA41005D0013C55F8043D984724
:102FE000002CF9D1BDE8384000F08CBA0000000098
:102FF00000000000F8B5234F0C460646FFF7C0FF5F
:10300000BB685D6825F00305291B01F6EF7121F40B
:103010007F6121F00F01A1F58054B4F5805F07DBDB
:1030200000213046FFF7B0FFBB682B44984204D024
:103030003046FFF7A7FF0020F8BD61423046FFF79A
:10304000A3FF01300DD0104BBA6819682D1B45F055
:1030500001053046091B55601960FFF793FF0120F9
:10306000F8BD00213046FFF78FFFBA68831A0F2B97
:10307000DEDD064C0449246843F00103001B536065
:103080000860D5E744EAFF1FC8EFFF1F50EEFF1F9F
:10309000002945D02DE9F0410D468046FFF770FF2D
:1030A00055F8047C6A4927F00103A5F10804E218E9
:1030B0008E685068B24220F0030062D0FE07506074
:1030C0000BD455F8087CE41B01F1080EA568754582
:1030D0003B446FD0E768EF60BD6015186D68ED0781
:1030E00042D543F001026260E350B3F5007F18D28D
:1030F000DB085A1C4D6851F83270A76001209B1004
:1031000000FA03F301EBC2001D430838E0604D6094
:1031100041F83240FC604046BDE8F041FFF732BF65
:1031200070475A0A042A53D89A0902F139077F00D6
:1031300002F1380501EB870051F82720444908388F
:1031400090424DD0516821F003018B4202D2926827
:103150009042F7D1D068E060A2608460D4604046BD
:10316000BDE8F041FFF70EBF95683A4FBD420344FA
:103170003FD0D068E86043F0010285606260E350B0
:10318000B3E7FF07034407D455F8082CA41A1344E7
:10319000A068E268C26090602F4A126843F00100A4
:1031A000934260608C60B6D32C4B40461968FFF7A1
:1031B00021FFB0E711184968C90744D49168D26863
:1031C000CA60034443F0010091606060E350A2E7ED
:1031D000142A17D802F15C077F0002F15B05A9E70A
:1031E000AA104B68012505FA02F213434B60024610
:1031F000B1E743F001024C610C61E560A5606260DB
:10320000E35088E7542A06D81A0B02F16F077F00B3
:1032100002F16E058EE7B2F5AA7F06D8DA0B02F14D
:1032200078077F0002F1770584E740F2545082422C
:1032300006D89A0C02F17D077F0002F17C0579E740
:10324000FE277E2576E743F001026260E35062E7E5
:1032500044EAFF1F4CEAFF1F4CEEFF1FC4EFFF1FA5
:103260002DE9F047254C2568D5F8484106468846A3
:1032700092469946C4B360681F2817DC431C76B198
:1032800004EB80050122C5F888A0D4F8881182409B
:103290001143022EC4F88811C5F808911ED00230DF
:1032A000636044F820800020BDE8F087144B03B32E
:1032B0004FF4C870FFF7A4FB0446D0B1D5F84831ED
:1032C000002780E88800C5F8484138460123C4F843
:1032D0008871C4F88C71002EE1D0D1E7D4F88C113C
:1032E0000A43C4F88C21DAE705F5A674C5F848410D
:1032F000C1E74FF0FF30BDE8F08700BFEC340000BD
:10330000012A0000496E696369616E646F204D6532
:103310006469C3A7C3A36F2E2E2E0000416C746F87
:1033200020706172612075533A0000000946726591
:103330007175656E63696120487A3A0009496E6467
:103340007574616E6369612075483A004008FE43F8
:1033500040A004404408FE4344A004400018FE433B
:1033600000C004403000FE43309004403400FE436F
:10337000349004401C18FE431CC004401018FE4347
:1033800010C004400818FE4308C004400C18FE4357
:103390000CC004400C10FE430CB004401010FE435F
:1033A00010B004401810FE4318B004401C10FE4337
:1033B0001CB004401410FE4314B004400418FE4333
:1033C00004C004400010FE4300B004400008FE4367
:1033D00000A004400408FE4304A004400C08FE437F
:1033E0000CA004400808FE4308A004401418FE4343
:1033F00014C004401818FE4318C004400410FE43D3
:1034000004B004400810FE4308B004401400FE431A
:10341000149004404C08FE434CA004400420FE439A
:1034200004D004402410FE4324B004402010FE4386
:1034300020B004402810FE4328B004402C10FE4366
:103440002CB004400020FE4300D004404808FE4356
:1034500048A004401000FE43109004400D0AFFFFF6
:103460006E616E006F766600696E66000000000097
:1034700000000000E11D0000D91D0000D51D000066
:10348000D11D0000CD1D0000C91D0000C51D00009C
:10349000C11D0000001519150001000074E5FF1F93
:1034A0001200000000020000A0E5FF1F4300000022
:1034B00000030000FCE5FF1F0000000001030904F9
:1034C00088E5FF1F0000000002030904E4E5FF1F78
:1034D000000000000303090400E6FF1F00000000D5
:1034E00000000000000000000000000018E6FF1FC0
:1034F000F8B500BFF8BC08BC9E467047AD2F000071
:04350000350400008E
:04350400F8B500BF57
:1035080008F0FF1FFFFFFFFF7434000000000000F9
:10351800E803000000000000010A04001201100185
:1035280002000040C0168304740201020301000077
:1035380018035400650065006E007300790064008C
:10354800750069006E006F0009024300020100C0A7
:1035580032090400000102020100052400100105DF
:10356800240101010424020605240600010705823E
:103578000310004009040100020A000000070503C7
:1035880002400000070584024000000016035500B1
:10359800530042002000530065007200690061007A
:1035A8006C000000040309040C0300000000000084
:1035B8000000000000000000000000000000010002
:1035C8000000000004E9FF1F6CE9FF1FD4E9FF1F9A
:1035D80000000000000000000000000000000000E3
:1035E80000000000000000000000000000000000D3
:1035F80000000000000000000000000000000000C3
:1036080000000000000000000000000000000000B2
:1036180000000000000000000000000000000000A2
:103628000000000000000000000000000000000092
:103638000000000000000000000000000000000082
:103648000000000000000000000000000000000072
:103658000000000000000000000000000000000062
:103668000000000000000000010000000000000051
:103678000E33CDAB34126DE6ECDE05000B00000016
:103688000000000000000000000000000000000032
:103698000000000000000000000000000000000022
:1036A8000000000000000000000000000000000012
:1036B8000000000000000000000000000000000002
:1039E800000000000000000018E6FF1F00000000B3
:1039F8000000000044EAFF1F44EAFF1F4CEAFF1FD3
:103A08004CEAFF1F54EAFF1F54EAFF1F5CEAFF1F3E
:103A18005CEAFF1F64EAFF1F64EAFF1F6CEAFF1FEE
:103A28006CEAFF1F74EAFF1F74EAFF1F7CEAFF1F9E
:103A38007CEAFF1F84EAFF1F84EAFF1F8CEAFF1F4E
:103A48008CEAFF1F94EAFF1F94EAFF1F9CEAFF1FFE
:103A58009CEAFF1FA4EAFF1FA4EAFF1FACEAFF1FAE
:103A6800ACEAFF1FB4EAFF1FB4EAFF1FBCEAFF1F5E
:103A7800BCEAFF1FC4EAFF1FC4EAFF1FCCEAFF1F0E
:103A8800CCEAFF1FD4EAFF1FD4EAFF1FDCEAFF1FBE
:103A9800DCEAFF1FE4EAFF1FE4EAFF1FECEAFF1F6E
:103AA800ECEAFF1FF4EAFF1FF4EAFF1FFCEAFF1F1E
:103AB800FCEAFF1F04EBFF1F04EBFF1F0CEBFF1FCB
:103AC8000CEBFF1F14EBFF1F14EBFF1F1CEBFF1F7A
:103AD8001CEBFF1F24EBFF1F24EBFF1F2CEBFF1F2A
:103AE8002CEBFF1F34EBFF1F34EBFF1F3CEBFF1FDA
:103AF8003CEBFF1F44EBFF1F44EBFF1F4CEBFF1F8A
:103B08004CEBFF1F54EBFF1F54EBFF1F5CEBFF1F39
:103B18005CEBFF1F64EBFF1F64EBFF1F6CEBFF1FE9
:103B28006CEBFF1F74EBFF1F74EBFF1F7CEBFF1F99
:103B38007CEBFF1F84EBFF1F84EBFF1F8CEBFF1F49
:103B48008CEBFF1F94EBFF1F94EBFF1F9CEBFF1FF9
:103B58009CEBFF1FA4EBFF1FA4EBFF1FACEBFF1FA9
:103B6800ACEBFF1FB4EBFF1FB4EBFF1FBCEBFF1F59
:103B7800BCEBFF1FC4EBFF1FC4EBFF1FCCEBFF1F09
:103B8800CCEBFF1FD4EBFF1FD4EBFF1FDCEBFF1FB9
:103B9800DCEBFF1FE4EBFF1FE4EBFF1FECEBFF1F69
:103BA800ECEBFF1FF4EBFF1FF4EBFF1FFCEBFF1F19
:103BB800FCEBFF1F04ECFF1F04ECFF1F0CECFF1FC6
:103BC8000CECFF1F14ECFF1F14ECFF1F1CECFF1F75
:103BD8001CECFF1F24ECFF1F24ECFF1F2CECFF1F25
:103BE8002CECFF1F34ECFF1F34ECFF1F3CECFF1FD5
:103BF8003CECFF1F44ECFF1F44ECFF1F4CECFF1F85
:103C08004CECFF1F54ECFF1F54ECFF1F5CECFF1F34
:103C18005CECFF1F64ECFF1F64ECFF1F6CECFF1FE4
:103C28006CECFF1F74ECFF1F74ECFF1F7CECFF1F94
:103C38007CECFF1F84ECFF1F84ECFF1F8CECFF1F44
:103C48008CECFF1F94ECFF1F94ECFF1F9CECFF1FF4
:103C58009CECFF1FA4ECFF1FA4ECFF1FACECFF1FA4
:103C6800ACECFF1FB4ECFF1FB4ECFF1FBCECFF1F54
:103C7800BCECFF1FC4ECFF1FC4ECFF1FCCECFF1F04
:103C8800CCECFF1FD4ECFF1FD4ECFF1FDCECFF1FB4
:103C9800DCECFF1FE4ECFF1FE4ECFF1FECECFF1F64
:103CA800ECECFF1FF4ECFF1FF4ECFF1FFCECFF1F14
:103CB800FCECFF1F04EDFF1F04EDFF1F0CEDFF1FC1
:103CC8000CEDFF1F14EDFF1F14EDFF1F1CEDFF1F70
:103CD8001CEDFF1F24EDFF1F24EDFF1F2CEDFF1F20
:103CE8002CEDFF1F34EDFF1F34EDFF1F3CEDFF1FD0
:103CF8003CEDFF1F44EDFF1F44EDFF1F4CEDFF1F80
:103D08004CEDFF1F54EDFF1F54EDFF1F5CEDFF1F2F
:103D18005CEDFF1F64EDFF1F64EDFF1F6CEDFF1FDF
:103D28006CEDFF1F74EDFF1F74EDFF1F7CEDFF1F8F
:103D38007CEDFF1F84EDFF1F84EDFF1F8CEDFF1F3F
:103D48008CEDFF1F94EDFF1F94EDFF1F9CEDFF1FEF
:103D58009CEDFF1FA4EDFF1FA4EDFF1FACEDFF1F9F
:103D6800ACEDFF1FB4EDFF1FB4EDFF1FBCEDFF1F4F
:103D7800BCEDFF1FC4EDFF1FC4EDFF1FCCEDFF1FFF
:103D8800CCEDFF1FD4EDFF1FD4EDFF1FDCEDFF1FAF
:103D9800DCEDFF1FE4EDFF1FE4EDFF1FECEDFF1F5F
:103DA800ECEDFF1FF4EDFF1FF4EDFF1FFCEDFF1F0F
:103DB800FCEDFF1F04EEFF1F04EEFF1F0CEEFF1FBC
:103DC8000CEEFF1F14EEFF1F14EEFF1F1CEEFF1F6B
:103DD8001CEEFF1F24EEFF1F24EEFF1F2CEEFF1F1B
:103DE8002CEEFF1F34EEFF1F34EEFF1F3CEEFF1FCB
:0C3DF8003CEEFF1F00000200FFFFFFFF79
:00000001FF
