:100000002DC051C050C05FC04EC04DC04CC04BC091
:100010004AC049C048C01AC2D7C445C044C043C042
:1000200042C00000000000040302010000000102C1
:1000300004081020408004020108010101010101AF
:1000400001010202020200003900360000003B00FC
:10005000380000003A003700FD000D0511241FBED6
:10006000CFE5D2E0DEBFCDBF10E0A0E6B0E0E4E136
:10007000FCE002C005900D92AA3CB107D9F721E03F
:10008000AAECB0E001C01D92A731B207E1F710E081
:10009000CEE2D0E003C02197FE01B4D5CC32D10727
:1000A000D1F7D7D4B5C5ACCFFB0101900020E9F75B
:1000B0003197AF01461B570BDC01ED91FC9102809B
:1000C000F381E02D09941F920F920FB60F92112425
:1000D0000F900FBE0F901F901895D89864E670E0AF
:1000E00080E090E024D2D89A64E670E080E090E06E
:1000F0001ED26BE770E081EE90E0D6DF81EE90E0FB
:1001000053D364EF71E080E090E011D264E870E0D6
:1001100081EE90E0C9DF81EE90E046D364EF71E0BC
:1001200080E090E004D260E670E081EE90E0BCDF19
:1001300081EE90E039D364EF71E080E090E0F7D198
:10014000D89864E670E080E090E0F1C1D09A6AEF60
:1001500070E080E090E0EBD1D69ADE9864E670E043
:1001600080E090E0E4D1DE9ABA98D398D89A68EE0D
:1001700073E080E090E0DBD140E855E260E070E0C1
:1001800081EE90E0C6D368EE73E080E090E0CFD1DE
:10019000A4DF68EE73E080E090E0C9D18CEC90E0E1
:1001A00046D182E0FDD1D89A089586EA91E6A0E092
:1001B000B0E08093770090937800A0937900B0939B
:1001C0007A000895F2DF8CEC90E03CD164EF71E0AE
:1001D00080E090E0ACD160917700709178008091E0
:1001E000790090917A006CD4AB01BC018CEC90E06A
:1001F00018D16AE08CEC90E007C120E84AE069E0A1
:100200008CEC90E0C4C0CF93DF93CAECD0E0209197
:10021000750030917600CE018A5C9040281739072E
:100220004CF081EE90E012D38993682F81EE90E03C
:10023000DDD2EDCF81EE90E0DF91CF9107C340E8B2
:1002400055E260E070E081EE90E063D3D89ADE98EA
:10025000B9DF809174008130E9F46DE870E081EEDF
:1002600090E0B4D281EE90E0D1D21816190664F471
:10027000CADF8091CA006EE970E0853411F06DEA42
:1002800070E081EE90E0A2D264EF71E080E090E057
:100290004ED1DFCF089580917400813009F4CFCF23
:1002A0000895FC018181FAD121E0892B09F020E039
:1002B000822F0895CF92DF92FF920F931F93CF93D7
:1002C000DF93EC01CE01EDDF8823E1F341E06881AB
:1002D000898102D2082F41E068818981FDD1182FE0
:1002E00041E068818981F8D1F82ED12CC12C8A8116
:1002F0008C151D0459F050F061E0888192D160E0C6
:1003000088818FD18FEFC81AD80AF1CFD02FD0951E
:10031000C12FC0954F2D40952FEFD7FD09C0DF3776
:10032000F1F4CF3FE1F421E04F3F09F020E02195C7
:100330006C2F70E090E080E0982F872F762F662753
:100340008D2B642B922B6F5F7F4F8F4F9F4FDF91D1
:10035000CF911F910F91FF90DF90CF90089520E0F3
:10036000E7CFCF93DF93EC01603479F0603821F070
:10037000603221F482E001C081E08A8360E08881FC
:1003800050D1CE01DF91CF9195CF83E0F6CF1F936F
:10039000CF93DF93EC01842F122F4883698361E0B0
:1003A00002D160E08981FFD0612FCE01DF91CF9132
:1003B0001F91D7CFCF92DF92EF92FF920F931F93AF
:1003C000CF93DF938C01D62FC0E0C12CD12C7601C6
:1003D000CD1741F0C8016EDFC60ED71EE81EF91E0C
:1003E000CF5FF6CF2C2F30E050E040E0C701B601E0
:1003F000EDD3CA01B901DF91CF911F910F91FF9009
:10040000EF90DF90CF900895CF93DF93EC01D2DF90
:1004100057D323D36B837C838D839E83DF91CF91CE
:100420000895FC0147835087618772870895CF93B1
:10043000DF93EC0160E08881F4D061E08881DF9196
:10044000CF91EFC060E0FC018081EBC01F920F9262
:100450000FB60F9211242F933F938F939F93AF93D7
:10046000BF938091D8009091D900A091DA00B0910B
:10047000DB003091D70026E0230F2D3768F129E803
:10048000230F0396A11DB11D2093D7008093D800A0
:100490009093D900A093DA00B093DB008091DC0048
:1004A0009091DD00A091DE00B091DF000196A11DCA
:1004B000B11D8093DC009093DD00A093DE00B0932B
:1004C000DF00BF91AF919F918F913F912F910F903E
:1004D0000FBE0F901F9018950296A11DB11DD4CF8D
:1004E0003FB7F8948091DC009091DD00A091DE0090
:1004F000B091DF0022B708B600FE05C02F3F19F00B
:100500000196A11DB11D3FBFBA2FA92F982F882793
:10051000BC01CD01620F711D811D911D43E0660F6D
:10052000771F881F991F4A95D1F708950895CF9294
:10053000DF92EF92FF92CF93DF936B017C01D0DFCC
:10054000EB01C114D104E104F10461F0EFDFC8DF75
:100550006C1B7D0B683E7340A0F3C114D104E10411
:10056000F10439F4DF91CF91FF90EF90DF90CF90BD
:10057000089581E0C81AD108E108F108C851DC4F9C
:10058000E6CF83E080BF83BF789499B7916099BF2D
:100590008FBD8EBD86B18877866886B9379A0895F3
:1005A0008093E0000895CF93DF9387FD8F7790E0ED
:1005B000FC01E25DFF4F2491865C9F4FFC0184911A
:1005C0008823C9F090E0880F991FFC01EE5AFF4F75
:1005D000A591B491FC01E45BFF4FC591D4916111E9
:1005E0000DC09FB7F8948C91209582238C938881BD
:1005F000282328839FBFDF91CF910895623051F463
:100600009FB7F8943C91822F809583238C93E88147
:100610002E2BEFCF8FB7F894EC912E2B2C938FBF0E
:10062000EACF87FD8F7790E0FC01EE5DFF4F3491BC
:10063000FC01E25DFF4F2491FC01E65CFF4FE49179
:10064000EE23B9F0332329F03130A1F480B78F774E
:1006500080BFF0E0EE0FFF1FE45BFF4FA591B49168
:100660008FB7611117C0F894EC9120952E232C932D
:100670008FBF0895323019F480B78F7DE9CF3330C2
:1006800021F48FB58F778FBDE4CF343011F78FB55C
:100690008F7DF9CFF894EC912E2BE9CF87FD8F77E2
:1006A00090E0FC01E25DFF4F2491FC01E65CFF4F0E
:1006B000E491EE2371F0F0E0EE0FFF1FEA5BFF4FD5
:1006C000A591B491EC91E22381E090E021F480E0E7
:1006D000089580E090E00895CF92DF92EF92FF922C
:1006E0000F931F93CF93DF93F82ED62FE42E10E0B5
:1006F00000E0C0E087E0C82ED12C61E08D2F91DFB3
:100700008F2DE11019C0CADF002E01C0880F0A9496
:10071000EAF7C82B60E08D2F84DF0F5F1F4F083092
:10072000110559F78C2FDF91CF911F910F91FF90F9
:10073000EF90DF90CF900895B1DF9601201B310B31
:1007400001C0880F2A95EAF7E4CFCF92DF92EF92AB
:10075000FF920F931F93CF93DF936C01EB017B010B
:10076000E40EF51E10E000E0CE15DF0561F06991A2
:10077000D601ED91FC910190F081E02DC601099523
:10078000080F191FF1CFC801DF91CF911F910F9171
:10079000FF90EF90DF90CF900895DC01ED91FC91F8
:1007A0000190F081E02D09940F931F93CF93DF9375
:1007B000EC016DE0F2DF8C016AE0CE01EEDF800F2C
:1007C000911FDF91CF911F910F9108950F931F9368
:1007D000CF93DF93EC0168DC8C01CE01E5DF800F65
:1007E000911FDF91CF911F910F9108950F931F9348
:1007F000CF93DF93EC01D1DF8C01CE01D5DF800FE9
:10080000911FDF91CF911F910F910895DC011F96E9
:10081000ED91FC9180A191A122A133A1821B930BA8
:100820008F7199270895DC011F96ED91FC9182A1AB
:1008300093A120A131A12817390729F0E80FF91F4A
:10084000808190E008958FEF9FEF0895DC011F965F
:10085000ED91FC9122A133A180A191A18217930770
:1008600061F0DF01A20FB31F8C912F5F3F4F2F71FB
:10087000332733A322A390E008958FEF9FEF0895CD
:100880002FB7F894FC01458556853AE060950894A9
:1008900020F47BB375237BBB04C07BB3742B7BBB81
:1008A000000021D020D01FD01ED066953A9581F748
:1008B0002FBF81E090E0089508954091ED0020E081
:1008C00038E011D010D00FD00ED00DD0889479B36D
:1008D000742309F0089427953A9509F0F3CF03D0D3
:1008E00002D0822F08958091F200982F9A95F1F707
:1008F0000895449A43984698479ADC0151961C9271
:1009000051971F96ED91FC9182A193A191A380A391
:100910000895CF92DF92EF92FF92CF93DF93EC0195
:100920009A01AB0160E072E18AE790E04FD1CA0121
:10093000B90167527109810991092CE030E040E06A
:1009400050E044D16901DA01C9010197A109B10957
:100950008F3F9105A105B10510F0CE01CADFC98A0C
:100960004398469A47984298419A409A9AB38C8500
:10097000809589238ABB8BB39C85892B8BBB8AB3DB
:100980009D85892B8ABB8BB39D85892B8BBB449A14
:10099000439ADF91CF91FF90EF90DF90CF90089531
:1009A000FB0140A151A19A012F5F3F4F2F713327C7
:1009B00062A173A16217730731F04E0F5F1FDA0156
:1009C0008C9331A320A308951F920F920FB60F921C
:1009D00011242F933F934F935F936F937F938F9344
:1009E0009F93AF93BF93EF93FF9367DF6091F00006
:1009F0007091F100D5DF449AFF91EF91BF91AF91D3
:100A00009F918F917F916F915F914F913F912F9126
:100A10000F900FBE0F901F901895E1EEF0E013823B
:100A2000128288EE93E0A0E0B0E084839583A683F1
:100A3000B7838EEB90E09183808383EF90E0908B7F
:100A4000878784E0848782E085878DEF8687118A97
:100A5000089597DD7BDB1FDCFECF04D06894B111D5
:100A60008DC0089570D088F09F5790F0B92F9927C6
:100A7000B751A0F0D1F0660F771F881F991F1AF0A9
:100A8000BA95C9F712C0B13081F077D0B1E00895BE
:100A900074C0672F782F8827B85F39F0B93FCCF33F
:100AA000869577956795B395D9F73EF4909580959F
:100AB000709561957F4F8F4F9F4F0895E89409C0BF
:100AC00097FB3EF490958095709561957F4F8F4F81
:100AD0009F4F9923A9F0F92F96E9BB279395F69597
:100AE000879577956795B795F111F8CFFAF4BB0F15
:100AF00011F460FF1BC06F5F7F4F8F4F9F4F16C079
:100B0000882311F096E911C0772321F09EE8872F02
:100B1000762F05C0662371F096E8862F70E060E0BE
:100B20002AF09A95660F771F881FDAF7880F969537
:100B3000879597F9089557FD9058440F551F59F020
:100B40005F3F71F04795880F97FB991F61F09F3FBA
:100B500079F087950895121613061406551FF2CFE3
:100B60004695F1DF08C0161617061806991FF1CF33
:100B700086957105610508940895E894BB2766275A
:100B80007727CB0197F90895A1E21A2EAA1BBB1B68
:100B9000FD010DC0AA1FBB1FEE1FFF1FA217B30749
:100BA000E407F50720F0A21BB30BE40BF50B661F5F
:100BB000771F881F991F1A9469F760957095809523
:100BC00090959B01AC01BD01CF010895052E97FBC7
:100BD00016F400940FD057FD05D0D6DF07FC02D0E5
:100BE00046F408C050954095309521953F4F4F4FA2
:100BF0005F4F089590958095709561957F4F8F4FC9
:100C00009F4F0895EE0FFF1F0590F491E02D09947A
:040C1000F894FFCF86
:100C140041542B4E414D45452D6C617374696320DD
:100C240020202020010200A661000041542B5245DF
:100C34005345540041542B534156453000456E747E
:100C4400726F7520656D206C696761646F006675ED
:100C54006EC3A7616F20616E746967610066756E0B
:100C6400C3A7616F206E6F7661000000000040042E
:0A0C7400A5030604260413045C0423
:00000001FF
