:020000040000FA
:100000000C945D000C9485000C9485000C94850084
:100010000C9485000C9485000C9485000C9485004C
:100020000C9485000C9485000C9485000C9485003C
:100030000C9485000C9485000C9485000C9485002C
:100040000C9404030C9485000C94D2020C94AC0222
:100050000C9485000C9485000C9485000C9485000C
:100060000C9485000C94850000000008000201003B
:100070000003040700000000000000000000000072
:10008000250028002B0000000000240027002A0083
:10009000040404040404040402020202020203032E
:1000A0000303030301020408102040800102040836
:1000B00010200102040810206E0411241FBECFEF8F
:1000C000D8E0DEBFCDBF11E0A0E0B1E0EAE8F9E0A2
:1000D00002C005900D92AE32B107D9F721E0AEE231
:1000E000B1E001C01D92A93DB207E1F710E0CDE5F6
:1000F000D0E004C02197FE010E94BD04CC35D10799
:10010000C9F70E944E030C94C3040C94000090E0C5
:10011000FC01EC55FF4F249180579F4FFC018491C7
:10012000882399F090E0880F991FFC01EA57FF4F50
:10013000A591B491FC01E458FF4F859194918FB73C
:10014000F894EC91E22BEC938FBF0895E2E7F0E096
:100150002491EEEAF0E09491EAE9F0E0E491EE23F4
:10016000C9F0222339F0233001F1A8F4213019F12C
:10017000223029F1F0E0EE0FFF1FE458FF4FA59168
:10018000B4912FB7F894EC91811126C090959E23DD
:100190009C932FBF08952730A9F02830C9F0243050
:1001A00049F7209180002F7D03C0209180002F7798
:1001B00020938000DFCF24B52F7724BDDBCF24B57B
:1001C0002F7DFBCF2091B0002F772093B000D2CFAE
:1001D0002091B0002F7DF9CF9E2BDACFAF92BF9246
:1001E000CF92DF92EF92FF920F931F93CF93DF9303
:1001F0006C017B018B01040F151FEB015E01AE1832
:10020000BF08C017D10759F06991D601ED91FC9153
:100210000190F081E02DC6010995892B79F7C50180
:10022000DF91CF911F910F91FF90EF90DF90CF90D2
:10023000BF90AF900895FC01538D448D252F30E081
:10024000842F90E0821B930B541710F0CF960895E3
:1002500001970895FC01918D828D981761F0A28D10
:10026000AE0FBF2FB11D5D968C91928D9F5F9F73D6
:10027000928F90E008958FEF9FEF0895FC01918D8C
:10028000828D981731F0828DE80FF11D858D90E0F9
:1002900008958FEF9FEF0895FC01918D228D892F96
:1002A00090E0805C9F4F821B91098F73992708957E
:1002B0008CE391E00E944C0121E0892B09F420E0BD
:1002C000822F089580E090E0892B29F00E94580148
:1002D00081110C9400000895FC01A48DA80FB92F82
:1002E000B11DA35ABF4F2C91848D90E001968F735E
:1002F0009927848FA689B7892C93A089B1898C917D
:10030000837080648C93938D848D981306C00288CB
:10031000F389E02D80818F7D80830895EF92FF9295
:100320000F931F93CF93DF93EC0181E0888F9B8D18
:100330008C8D98131AC0E889F989808185FF15C0D2
:100340009FB7F894EE89FF896083E889F9898081F5
:100350008370806480839FBF81E090E0DF91CF91C4
:100360001F910F91FF90EF900895F62E0B8D10E0E6
:100370000F5F1F4F0F731127E02E8C8D8E110CC055
:100380000FB607FCFACFE889F989808185FFF5CFA0
:10039000CE010E946C01F1CFEB8DEC0FFD2FF11D12
:1003A000E35AFF4FF0829FB7F8940B8FEA89FB89DD
:1003B00080818062CFCFCF93DF93EC01888D88233B
:1003C000B9F0AA89BB89E889F9898C9185FD03C0B8
:1003D000808186FD0DC00FB607FCF7CF8C9185FF9D
:1003E000F2CF808185FFEDCFCE010E946C01E9CF75
:1003F000DF91CF910895FC0101900020E9F731973A
:10040000AF01481B590BBC018CE391E00C94EE004A
:100410008F929F92AF92BF920F931F93CF93DF93D0
:10042000CDB7DEB7A1970FB6F894DEBF0FBECDBF34
:1004300019A2423008F44AE08E010F5D1F4F842E4E
:10044000912CB12CA12CA50194010E949B04E62FB4
:10045000B901CA01EA30F4F4E05DD801EE938D01F0
:10046000232B242B252B79F790E080E0109719F0AF
:10047000CD010E94FB01A1960FB6F894DEBF0FBE1E
:10048000CDBFDF91CF911F910F91BF90AF909F9003
:100490008F900895E95CE1CFBF92CF92DF92EF9207
:1004A000FF920F931F93CF93DF9300D0CDB7DEB7AA
:1004B000906199838A8382E191E00E94FB018CE143
:1004C00091E00E94FB018E010F5F1F4FC12CD12CC8
:1004D0007601B02E8FE191E00E94FB014AE0C70156
:1004E000B6010E94080289E291E00E94FB01F80136
:1004F00061918F0170E090E080E042E00E9408028C
:100500008CE191E00E94FB01CA94CD28CE28CF282F
:10051000F1F480E00E94A600BEBC00000DB407FE0E
:10052000FDCF8EB5BEBC00000DB407FEFDCF8EB56D
:1005300081E00E94A6000F900F90DF91CF911F9154
:100540000F91FF90EF90DF90CF90BF900895C12C56
:10055000D12C7601C394BECF1F920F920FB60F928B
:1005600011242F933F934F935F936F937F938F93B8
:100570009F93AF93BF93EF93FF938CE391E00E941F
:100580006C01FF91EF91BF91AF919F918F917F91FE
:100590006F915F914F913F912F910F900FBE0F90F0
:1005A0001F9018951F920F920FB60F9211242F9340
:1005B0008F939F93EF93FF93E0914C01F0914D0146
:1005C0008081E0915201F091530182FD1BC0908126
:1005D000809155018F5F8F7320915601821741F0F2
:1005E000E0915501F0E0E45CFE4F958F809355015A
:1005F000FF91EF919F918F912F910F900FBE0F90D0
:100600001F9018958081F4CF1F920F920FB60F9212
:1006100011242F933F938F939F93AF93BF93809118
:10062000340190913501A0913601B091370130919C
:10063000320123E0230F2D3758F50196A11DB11D7E
:10064000209332018093340190933501A0933601B9
:10065000B093370180912E0190912F01A09130012C
:10066000B09131010196A11DB11D80932E0190938F
:100670002F01A0933001B0933101BF91AF919F91B1
:100680008F913F912F910F900FBE0F901F90189553
:1006900026E8230F0296A11DB11DD2CF789484B510
:1006A000826084BD84B5816084BD85B5826085BD6E
:1006B00085B5816085BD80916E00816080936E00FC
:1006C00010928100809181008260809381008091EE
:1006D000810081608093810080918000816080939F
:1006E00080008091B10084608093B1008091B0005F
:1006F00081608093B00080917A00846080937A005A
:1007000080917A00826080937A0080917A00816083
:1007100080937A0080917A00806880937A001092AA
:10072000C1008AE00E94870081E00E94A600CFB746
:10073000F89480913301811123C0EAE9F0E08491BB
:10074000EEEAF0E09491E82FF0E0EE0FFF1FEA5799
:10075000FF4FA591B491EC91E92319F481E00E9437
:10076000A6008AE00E9487008CB580618CBD8CB5A4
:1007700080648CBD8DE00E9487008BE00E94870022
:10078000809133018F5F80933301CFBFE0914C01A3
:10079000F0914D0182E08083E0914801F0914901A0
:1007A0001082E0914A01F0914B0180E18083109228
:1007B0005401E0915001F091510186E08083E09175
:1007C0004E01F0914F01808180618083E0914E0164
:1007D000F0914F01808188608083E0914E01F0911B
:1007E0004F01808180688083E0914E01F0914F013C
:1007F00080818F7D8083C0E0D0E08FEF9FE00E94FA
:100800004C022FB7F8948091340190913501A0915A
:100810003601B09137012FBF809338019093390191
:10082000A0933A01B0933B018FB7F8944091340103
:100830005091350160913601709137018FBF8091E1
:10084000380190913901A0913A01B0913B0188574C
:100850009C4EAF4FBF4F481759076A077B0720F3DD
:1008600090E080E00E944C022FB7F8948091340110
:1008700090913501A0913601B09137012FBF80933F
:10088000380190933901A0933A01B0933B018FB79F
:10089000F894409134015091350160913601709186
:1008A00037018FBF8091380190913901A0913A01B1
:1008B000B0913B0188579C4EAF4FBF4F4817590727
:1008C0006A077B0720F3209709F497CF0E9458010D
:1008D000882309F492CF0E9400008FCFECE3F1E06F
:1008E0001382128288EE93E0A0E0B0E084839583C7
:1008F000A683B78384E091E09183808385EC90E0C8
:100900009587848784EC90E09787868780EC90E0D9
:10091000918B808B81EC90E0938B828B82EC90E0CA
:10092000958B848B86EC90E0978B868B118E128E44
:10093000138E148E0895A1E21A2EAA1BBB1BFD0173
:100940000DC0AA1FBB1FEE1FFF1FA217B307E407AE
:10095000F50720F0A21BB30BE40BF50B661F771F06
:10096000881F991F1A9469F76095709580959095E6
:100970009B01AC01BD01CF010895EE0FFF1F059053
:10098000F491E02D0994F894FFCF000000008E014F
:10099000EE001B01DB014C012A013E015772697414
:1009A0006520535049000D0A007772697465436DE4
:0809B000645B005D3A200000C9
:107E0000112484B714BE81FFF0D085E080938100F7
:107E100082E08093C00088E18093C10086E0809377
:107E2000C20080E18093C4008EE0C9D0259A86E02C
:107E300020E33CEF91E0309385002093840096BBD3
:107E4000B09BFECF1D9AA8958150A9F7CC24DD24C4
:107E500088248394B5E0AB2EA1E19A2EF3E0BF2EE7
:107E6000A2D0813461F49FD0082FAFD0023811F036
:107E7000013811F484E001C083E08DD089C08234E0
:107E800011F484E103C0853419F485E0A6D080C0E4
:107E9000853579F488D0E82EFF2485D0082F10E0AE
:107EA000102F00270E291F29000F111F8ED06801E7
:107EB0006FC0863521F484E090D080E0DECF843638
:107EC00009F040C070D06FD0082F6DD080E0C81688
:107ED00080E7D80618F4F601B7BEE895C0E0D1E017
:107EE00062D089930C17E1F7F0E0CF16F0E7DF06D8
:107EF00018F0F601B7BEE89568D007B600FCFDCFD4
:107F0000A601A0E0B1E02C9130E011968C91119780
:107F100090E0982F8827822B932B1296FA010C0160
:107F200087BEE89511244E5F5F4FF1E0A038BF0790
:107F300051F7F601A7BEE89507B600FCFDCF97BE46
:107F4000E89526C08437B1F42ED02DD0F82E2BD052
:107F50003CD0F601EF2C8F010F5F1F4F84911BD097
:107F6000EA94F801C1F70894C11CD11CFA94CF0C13
:107F7000D11C0EC0853739F428D08EE10CD085E9AC
:107F80000AD08FE07ACF813511F488E018D01DD067
:107F900080E101D065CF982F8091C00085FFFCCF94
:107FA0009093C60008958091C00087FFFCCF809118
:107FB000C00084FD01C0A8958091C6000895E0E648
:107FC000F0E098E1908380830895EDDF803219F02E
:107FD00088E0F5DFFFCF84E1DECF1F93182FE3DFCA
:107FE0001150E9F7F2DF1F91089580E0E8DFEE27F6
:047FF000FF270994CA
:027FFE00040479
:00000001FF
